:100000000C94EC000C9414010C9414010C94140145
:100010000C9414010C9414010C9414010C9414010C
:100020000C9414010C9414010C94EF040C945E05D0
:100030000C9414010C9414010C9414010C941401EC
:100040000C9414010C9490070C9414010C9414015A
:100050000C9414010C9414010C9414010C94A50438
:100060000C9414010C9414010C9414010C941401BC
:100070000C9414010C9414010C9414010C941401AC
:100080000C9414010C9414010C9414010C9414019C
:100090000C9414010C9414010C9414010C9414018C
:1000A0000C9414010C9414010C9414014E414E490B
:1000B0004E495459494E46CDCCCC3D0AD7233C1726
:1000C000B7D13877CC2B329595E6241FB14F0A0073
:1000D0000020410000C84200401C4620BCBE4CCA63
:1000E0001B0E5AAEC59D74080B00020202000009E7
:1000F0000400000102020000052400100105240193
:1001000001010424020605240600010705810310ED
:10011000004009040100020A000000070502024035
:1001200000000705830240000004030904120100D7
:1001300002EF0201404F1B0692000101020301532E
:100140007061726B46756E00537061726B46756EAE
:100150002050726F204D6963726F00000000002410
:100160000027002A002D0030000000000025002894
:10017000002B002E003100040404040403040502D3
:100180000202020403020202020606060606060432
:1001900004020202040404080201104080401020FE
:1001A000408040800802040180402010020110803D
:1001B00010204040200000000200090F000003044E
:1001C00001000C0000000000000000000000000022
:1001D000000000004C08000B11241FBECFEFDAE036
:1001E000DEBFCDBF11E0A0E0B1E0E2E4F0E202C08A
:1001F00005900D92A633B107D9F722E0A6E3B1E04E
:1002000001C01D92A933B207E1F710E0CBEED0E0B8
:1002100004C02197FE010E94AC0ECA3ED107C9F767
:100220000E94B9080C9414100C940000FC018091F9
:100230009801882311F13FB7F89482E08093E90098
:100240002091F200822F90E01816190614F481E034
:1002500090E0882339F0289844E640939701409134
:10026000F1004083222339F02091F200211103C0D4
:100270002BE62093E8003FBF08958FEF9FEF08958E
:10028000CF92DF92EF92FF92DC01A03282E0B807BA
:10029000D4F5A53BB10514F0A4EBB0E040910F02FA
:1002A00028E830E0241B310947FD3395220F331F26
:1002B000220F331F6901330FEE08FF08409110022F
:1002C00028E532E0241B310947FD3395220F331F07
:1002D000220F331F032E000C440B550B2C193D0924
:1002E0004E095F09B7FF02C0B0E0A0E00E94300EE7
:1002F00024EB30E040E050E00E94060EC20ED31E18
:10030000E41EF51ED601E0910E02EC3080F520913E
:100310000F0288E890E0821B910927FD9395880FD2
:10032000991F880F991FA817B90784F02091100210
:1003300088E592E0821B910927FD9395880F991F0C
:10034000880F991FA817B9070CF4CD010297880FE1
:10035000991F4FB7F8942E2F30E0F901EE0FFF1FD1
:10036000E20FF31FE751FE4F928381834FBFFF904F
:10037000EF90DF90CF9008952FB7F89483E08093AB
:10038000E9009091E800892F807295FF04C0909158
:10039000F20080E4891B2FBF089580918F018111A5
:1003A0000DC082E080938B0184E080938C011092D9
:1003B0008E0110928D0181E080938F018BE891E096
:1003C0000895282F30E0F901EB54FE4F9491F90184
:1003D000EA56FE4F849129583E4FF9012491222379
:1003E00009F430C09923E9F091509F30D0F4E92FFF
:1003F000F0E0E350FE4F0C94AC0E2B022F020C02E7
:1004000023022702110211021102320238023C02B9
:100410004002460211024A02909180009F77909319
:100420008000E22FF0E0EE0FFF1FE759FE4FA5918D
:10043000B4919FB7F894EC91611132C080958E23EE
:100440008C939FBF0895909180009F7DE8CF9091FD
:100450008000977FE4CF94B59F7794BDE2CF94B5A9
:100460009F7DFBCF909190009F7790939000D9CF84
:10047000909190009F7DF9CF90919000977FF5CF5C
:100480009091C0009F779093C000CBCF9091C00017
:100490009F7DF9CF9091C200977F9093C200C1CF0A
:1004A0008E2BCECFCF93DF9390E0FC01EA56FE4F28
:1004B000249189589E4FFC0184918823D1F090E0CB
:1004C000880F991FFC01E55AFE4FA591B491FC01DC
:1004D000E759FE4FC591D49161110EC09FB7F894B2
:1004E0008C91E22FE0958E238C932881E223E88380
:1004F0009FBFDF91CF9108958FB7F894EC91E22BD5
:10050000EC938FBFF6CF3FB7F8948091870190911D
:100510008801A0918901B0918A0126B5A89B05C0E8
:100520002F3F19F00196A11DB11D3FBFBA2FA92F72
:10053000982F8827BC01CD01620F711D811D911D6F
:1005400042E0660F771F881F991F4A95D1F70895DB
:100550008F929F92AF92BF92CF92DF92EF92FF92D3
:100560004B015C010E9483026B017C010E948302AB
:100570006C197D098E099F09683E734081059105BC
:10058000A8F321E0821A9108A108B10888EEC80EEC
:1005900083E0D81EE11CF11C81149104A104B10474
:1005A00029F7FF90EF90DF90CF90BF90AF909F9092
:1005B0008F9008954091390150913A01209137016F
:1005C0003091380142175307B4F49091E8009570C8
:1005D000E1F39091E80092FD19C08093F1008091C1
:1005E000390190913A0101968F739927892B19F45B
:1005F0008EEF8093E8008091390190913A01019645
:1006000090933A018093390181E0089580E0089544
:10061000EF92FF920F931F93CF93DF93F82E192F32
:10062000E62E042F81E0860F880F0E94DA0283E015
:100630000E94DA02CF2DD12FEC0EFD2EF11CCE152B
:10064000DF05B9F007FF13C0FE0184910E94DA02B2
:10065000182F80E00E94DA02812321968111EFCFCA
:10066000DF91CF911F910F91FF90EF9008958881B6
:10067000EDCF81E0F5CFDF92EF92FF920F931F93C2
:10068000CF93DF93D82E8A01EB017B01E40EF51E98
:10069000CE15DF0559F0D7FE12C0FE0184910E94ED
:1006A000DA0221968111F4CF0FEF1FEFC801DF911D
:1006B000CF911F910F91FF90EF90DF900895888167
:1006C000EECF0F931F93CF93DF931F92CDB7DEB77B
:1006D00082E0898342E450E067EE70E080E80E94A7
:1006E0003B030E94CD01DC0112960D911C91011576
:1006F000110589F0D801ED91FC910280F381E02D84
:10070000BE016F5F7F4FC801099597FD04C0F801D6
:1007100000851185ECCF89810F90DF91CF911F91DA
:100720000F910895615030F02091F100FC01208379
:100730000196F8CF289884E68093970108958F92C8
:100740009F92AF92BF92CF92DF92EF92FF920F9360
:100750001F93CF93DF936C017B018A0180910B0182
:10076000882309F45CC080919801882309F457C05C
:1007700080913D0180FF05C08091E0008260809300
:10078000E000E801B12C8AEFA82E93E0892E2AE33D
:10079000922E209711F4BB20D9F10E94BC01811147
:1007A0000AC0AA94AA20D9F161E070E080E090E04C
:1007B0000E94A802EECF8C171D0611F00CF08C2FB2
:1007C0009FB7F8948092E9002091E80025FD02C0CF
:1007D0009FBFDFCF282F30E0C21BD30BF701815022
:1007E00020F041914093F100FACFE20EF31EBB20BE
:1007F00021F09092E800B12CEBCF8091E80085FDCC
:10080000E7CF9092E800BB24B394209709F3F3CF8D
:100810005D9884E680933C01101611063CF081E05F
:1008200090E0F6019383828310E000E0C801DF913D
:10083000CF911F910F91FF90EF90DF90CF90BF90DD
:10084000AF909F908F900895CF93DF931F92CDB775
:10085000DEB76983DC01ED91FC910280F381E02D2C
:1008600041E050E0BE016F5F7F4F09950F90DF912F
:10087000CF91089583E08093E9008091F20088236E
:1008800019F08AE38093E80008950E94BC0190E08B
:100890000895CF93DF931F92CDB7DEB7FC01848517
:1008A000958597FD08C02FEF3FEF358724870F9080
:1008B000DF91CF910895CE0101960E941601019714
:1008C00019F4898190E0F3CF8FEF9FEFF0CF0F9372
:1008D0001F93CF93DF931F92CDB7DEB78C01FC013E
:1008E0008485958597FF0BC0CE0101960E94160165
:1008F000019771F4898190E0F80195878487F80168
:10090000848595850F90DF91CF911F910F91089568
:100910008FEF9FEFF1CFFC018485958597FD0BC08C
:100920009FB7F89482E08093E9008091F2009FBF26
:1009300090E0019608959FB7F89482E08093E900D3
:100940008091F2009FBF90E008951F920F920FB622
:100950000F9211242F933F938F939F93AF93BF9345
:100960008091830190918401A0918501B0918601CD
:100970003091820123E0230F2D3758F50196A11DF8
:10098000B11D209382018093830190938401A093F1
:100990008501B09386018091870190918801A09193
:1009A0008901B0918A010196A11DB11D8093870133
:1009B00090938801A0938901B0938A01BF91AF9170
:1009C0009F918F913F912F910F900FBE0F901F908D
:1009D000189526E8230F0296A11DB11DD2CF1F92B4
:1009E0000F920FB60F9211248F939F938091E10085
:1009F0009091E100937F9093E10083FF0FC01092EC
:100A0000E90091E09093EB001092EC0092E3909358
:100A1000ED001092980198E09093F00082FF22C0C0
:100A200093E09093E9009091F200992319F09AE3F2
:100A30009093E80090913C01992341F090913C0102
:100A4000915090933C01911101C05D9A9091970152
:100A5000992341F0909197019150909397019111B2
:100A600001C0289A84FF18C08091E2008E7E8160C8
:100A70008093E2008091E1008F7E8093E10080917D
:100A80003D018E7E806180933D019F918F910F90FB
:100A90000FBE0F901F90189580FFF7CF8091E20056
:100AA0008E7E80618093E2008091E1008E7E809353
:100AB000E10080913D018E7E8160E5CF1F920F9213
:100AC0000FB60F921124CF92DF92EF92FF920F9305
:100AD0001F932F933F934F935F936F937F938F93C6
:100AE0009F93AF93BF93EF93FF93CF93DF93CDB7D4
:100AF000DEB76C97DEBFCDBF1092E9008091E800B1
:100B000083FF25C068E0CE0145960E94920382EFE4
:100B10008093E8008D8987FF39C09091E80090FFAD
:100B2000FCCF982F907609F034C19E894F89588D5B
:100B30002F89F88C911131C0803861F580913E0188
:100B40008093F1001092F1008EEF8093E8006C9694
:100B50000FB6F894DEBF0FBECDBFDF91CF91FF91EE
:100B6000EF91BF91AF919F918F917F916F915F9125
:100B70004F913F912F911F910F91FF90EF90DF9038
:100B8000CF900F900FBE0F901F9018959EEF9093EF
:100B9000E800C7CF1092F100D5CF913059F4811100
:100BA000D3CF4130510581F680913E018D7F8093F6
:100BB0003E01CACF933049F48111C6CF413051056F
:100BC00019F680913E018260F2CF953041F4809118
:100BD000E80080FFFCCF20682093E300B5CF96307B
:100BE00009F0A9C00B8D1C8D22E01092E900109233
:100BF0003A0110923901F2122EC01092380110926F
:100C000037010E9461031F8299E09983FA8291E083
:100C10009E8390EA98879AEF9987209139013091C5
:100C20003A01275F3F4F3C832B838D831092E9006D
:100C300010923A0110923901109338010093370154
:100C400049E050E0BE016F5F7F4F80E00E943B03B0
:100C50000E94610379CF10933801009337010E94FD
:100C6000CD01DC0112960D911C910115110509F4BD
:100C700051C1D801ED91FC910480F581E02DBE01B8
:100C80006B5E7F4FC8010995009709F03EC1F801DE
:100C900000851185EACFF3E0FF120EC08F8988230B
:100CA00009F440C0823061F440E862E188E491E0F8
:100CB0000E940803811148CF81E28093EB0047CF67
:100CC000813029F440E868E08FE391E0F1CF833090
:100CD00099F70E94CD01DC011296ED90FC908E01F7
:100CE0000F5F1F4F6801E114F10479F0D701ED9116
:100CF000FC910680F781E02DB801C7010995080F26
:100D0000111DF701E084F184EECFD8011C92F601A9
:100D100001900020E9F73197BF016C197D0940E08F
:100D2000C601C6CF69E271E0FB01449150E080E862
:100D30000E943B0309CF973009F4BECF983021F4CD
:100D400081E08093F10000CF993009F0FDCE8370EF
:100D500009F0B2CFE8E1F1E081E031E096E32191E2
:100D6000222371F08093E9003093EB00DF011197AB
:100D70002C912093EC009093ED008F5F873079F7F2
:100D80008EE78093EA001092EA008F8980939801A1
:100D9000DBCE8B8D9C8D1092E90010923A0110925F
:100DA00039019093380180933701898D811192C068
:100DB0008E899D89913A49F4813209F07DCF47E0CF
:100DC00050E064E071E080E0B3CF913209F074CF7D
:100DD000833269F48F89988DB0E0A0E080930001A0
:100DE00090930101A0930201B0930301ADCE803234
:100DF00069F48091E80082FFFCCF67E084E091E035
:100E00000E9492038BEF8093E8009ECE823209F01D
:100E10009BCE8F8980930B01EEEFFFE78591949134
:100E20008B3F9C4D51F1E0E0F8E0809104019091FE
:100E30000501A0910601B0910701803B9440A105F6
:100E4000B105F1F480910B0180FD1AC0EE3F8AE0FC
:100E5000F80789F587E797E79183808380916000A1
:100E600080933B0188E19BE00FB6F894A8958093AE
:100E700060000FBE9093600067CEEEEFFAE0D5CF32
:100E8000808191818737974709F05ECEA895809140
:100E9000600088618093600080913B0180936000D6
:100EA000EE3F2AE0F20789F08091FE0A9091FF0A56
:100EB0009183808349CE808191818737980751F251
:100EC0009093FF0A8093FE0AC5CF1092FF0A1092FA
:100ED000FE0A3ACE0E94CD01DC0112960D911C91C2
:100EE0000115110509F4E8CED801ED91FC910190AE
:100EF000F081E02DBE016B5E7F4FC8010995811125
:100F000023CEF80100851185EBCF181619060CF4D5
:100F10001BCED2CEF1E0FF12BECE6DE271E004CF67
:100F20001F920F920FB60F9211242F933F934F935E
:100F30005F936F937F938F939F93AF93BF93CF9361
:100F4000DF93EF93FF9380913601C0910D02D0E0C3
:100F500087FF24C010928500109284008091360192
:100F60008F5F8093360180913601082E000C990B1B
:100F70008C179D0724F4809136018C30C4F1809148
:100F8000840090918500049680349C4908F47AC0CE
:100F90008091840090918500049676C080913601FE
:100FA000082E000C990B8C179D07C4F6E0913601B2
:100FB0008E2FEE0F990BFC01EE0FFF1FE80FF91FAC
:100FC000E751FE4F808186FFC9CFE09136018E2F19
:100FD000EE0F990BFC01EE0FFF1FE80FF91FE75111
:100FE000FE4F808160E08F730E94E101B7CF2091B6
:100FF000840030918500E09136018E2FEE0F990B21
:10100000FC01EE0FFF1FE80FF91FE751FE4F818132
:101010009281820F931F9093890080938800E091C2
:1010200036018E2FEE0F990BFC01EE0FFF1FE80F1C
:10103000F91FE751FE4F808186FF11C0E091360114
:101040008E2FEE0F990BFC01EE0FFF1FE80FF91F1B
:10105000E751FE4F808161E08F730E94E101FF91B3
:10106000EF91DF91CF91BF91AF919F918F917F9140
:101070006F915F914F913F912F910F900FBE0F9005
:101080001F90189580E49CE99093890080938800D4
:101090008FEF80933601E3CFCF9310929C01109293
:1010A0009B0188EE93E0A0E0B0E080939D019093D7
:1010B0009E01A0939F01B093A00182E291E09093E2
:1010C0009A01809399018FEF9FEF9093A6018093EF
:1010D000A50184E180931D02CFEFC0932002C0934D
:1010E0001F02C0931E0281E192E09093130280934D
:1010F000120210922D0282E090E00E94E80E25E597
:10110000FC0120831182909315028093140280E4E5
:1011100092E4AFE0B0E08093160290931702A093A0
:101120001802B093190281E090E090931B02809323
:101130001A0284E080931C0210922E0280910D020C
:101140008C30A0F491E0980F90930D0280930E02E2
:1011500090E0FC01EE0FFF1FE80FF91FE751FE4F73
:1011600088EB9BE092838183CF910895C0930E0218
:10117000FBCFCF93DF9300D000D000D01F92CDB72C
:10118000DEB7789484B5826084BD84B5816084BD07
:1011900085B5826085BD85B5816085BD80916E0015
:1011A000816080936E001092810080918100826046
:1011B0008093810080918100816080938100809183
:1011C0008000816080938000809191008260809394
:1011D00091008091910081608093910080919000B6
:1011E0008160809390008091C10084608093C100F1
:1011F0008091C10082608093C1008091C1008160B4
:101200008093C1008091C30081608093C30080916E
:10121000C00082608093C0008091C2008160809392
:10122000C20080917A00846080937A0080917A0075
:10123000826080937A0080917A00816080937A0046
:1012400080917A00806880937A00109298011092C1
:101250003E0110923D018091D70081608093D700BC
:1012600080EA8093D80089B5806189BD89B58260A4
:1012700089BD09B400FEFDCF61E070E080E090E040
:101280000E94A8028091D8008F7C80618093D80052
:101290008091E000807F8093E0008091E1008E7E6D
:1012A0008093E1008DE08093E200559A209A8FEFC1
:1012B0009FEF9093A6018093A50110910B016AE026
:1012C00070E080E090E00E94A802111107C06AE07F
:1012D00070E080E090E00E94A802EFCF60E083E140
:1012E0000E94520260E082E10E94520280910E024E
:1012F0008C3008F051C061E08CE10E945202809174
:101300000E02282F30E0F901EE0FFF1FE20FF31F4E
:10131000E751FE4F9081907C9C61908310920F0268
:10132000109210022CE0622F0E94A00E829FB0014A
:10133000112430E020E0AB01420F531FFA01EE0F01
:10134000FF1FE40FF51FE751FE4F908196FD16C079
:101350002F5F3F4F2C30310571F781110FC0109274
:10136000800082E0809381001092850010928400BA
:10137000B19A80916F00826080936F00E0910E02BD
:101380008E2F90E0FC01EE0FFF1FE80FF91FE751D1
:10139000FE4F80818064808390E080E00E94400165
:1013A00068EC70E080E090E00E94A80284EB90E09E
:1013B0000E94400178E5272E72E0372E8E010F5FE4
:1013C0001F4F412C512CE0E86E2EEFEB7E2E64E691
:1013D00070E080E090E00E94A80289E991E00E941C
:1013E0008B042091810118161906A4F4211115C04F
:1013F00089E991E00E944904909180019111C1C056
:101400008F3309F0D6C081E080938001E6CF9093BE
:101410005F01E3CF222309F4ACC06FE371E080E603
:1014200091E00E940D1060E371E080E691E00E947F
:101430000D0BFC018081809310018091800182302E
:1014400009F0BEC060E371E090E080E00E940D0B07
:101450000E94090B60930C0170930D0180930E01A3
:1014600090930F0180918001813009F0B5C0809187
:101470001001803709F079C0809110026101C81A0B
:10148000D10887FDD394CC0CDD1CCC0CDD1C0D2CBD
:10149000000CEE08FF0880910F0228E830E0281BBE
:1014A000310987FD3395C901880F991F880F991F4E
:1014B0004C01990FAA08BB0880910E028F3F09F4D6
:1014C00088C090E0FC01EE0FFF1FE80FF91FE75105
:1014D000FE4F8181928133E0880F991F3A95E1F7A1
:1014E000B0E0A0E044E0B595A795979587954A951B
:1014F000D1F702969C012F5F3F4F032E000C440B47
:10150000550B281939094A095B09A4EBB0E00E9480
:10151000250EA7019601281939094A095B090E947D
:10152000060EC9014AE0B8010E94390B6CE389E953
:1015300091E00E942404F80101900020E9F731971E
:10154000AF01401B510BB80189E991E00E949F0354
:101550006EE389E991E00E94240442E050E062E3F6
:1015600071E089E991E00E949F031092800110923E
:10157000810180E090E0892B09F429CF0E940000CE
:1015800026CF90915F01E92FF0E0E15CFE4F8D30B6
:1015900049F080839F5F903208F439CF2FE1209388
:1015A0005F011BCF108210925F0131E03093810107
:1015B00014CF813209F011CF92E0909380010DCFCA
:1015C00040920C0150920D0160920E0170920F0139
:1015D00049CF90E080E08ECF823039F680911001C3
:1015E000803719F660910C0170910D0180910E0108
:1015F00090910F010E94B20ECB010E944001B5CF25
:101600008091140290911502009711F00C94840FB0
:101610000895662777270C945E0B41E352E00E9401
:10162000120B0895FA01A191B081009719F4109757
:10163000E1F0CD01DC01CD010D90002011F4C001DD
:1016400013C0FB012191222319F02015D9F7F3CF04
:10165000FB012191201519F41E92119606C0222338
:10166000C1F70D900020A1F7D001FA01A193B0833A
:101670000895BB274A3031F4992322F4BDE29095B6
:1016800081959F4F0C94450BBB27FB015527AA273B
:10169000880F991FAA1FA41710F0A41B83955051FF
:1016A000B9F7A05DAA3308F0A95DA193009779F777
:1016B000B111B1931192CB010C94CF0CB0E0A0E02A
:1016C000E4E6FBE00C943E0E5C017B0161157105C4
:1016D00019F0DB018D939C9385010F5F1F4FF5017E
:1016E000D0818D2F90E00E94AE0C6C01892BB9F552
:1016F000DD32B9F50F5F1F4FD5011196DC91C1E0C6
:101700005801F1E0AF1AB10843E050E064EB70E03B
:10171000C5010E94B70C892B69F5680182E0C80EEB
:10172000D11C45E050E06FEA70E0C6010E94B70CA2
:10173000892B21F4680197E0C90ED11CE114F10452
:1017400019F0D701CD92DC9260E070E080E89FEF65
:10175000C111FFC060E070E080E89FE7FAC0580167
:10176000BBCFDB3229F485010E5F1F4FF501D1811C
:10177000C0E0C6CF43E050E06CEA70E0C5010E94D3
:10178000B70C892BE9F0F80110E000E020E030E030
:10179000A9015F01B0ED8B2E8D0E89E08815C8F18F
:1017A0009C2E689491F88C2F8870C2FF16C081110E
:1017B00002C00F5F1F4F3196D501DC91C92DE9CFD3
:1017C000E114F10429F00E5F1F4FF701118300832C
:1017D00060E070E080EC9FE7BCC0882311F001500E
:1017E0001109A5E0B0E00E94250E9B01AC01220F7B
:1017F000331F441F551F280D311D411D511D283910
:1018000099E93907490799E15907A8F2C6609C2E62
:10181000D2CFAEEF8A1206C0C3FD3CC09C2E6894A6
:1018200093F8C9CFDF7DD534A9F580818D3239F4A5
:10183000C061DF011296818162E070E006C0DF01C5
:101840008B32C1F3119661E070E080535D01A61AFE
:10185000B70A8A30F8F4E0E8CE16ECE0DE065CF475
:10186000B601660F771F660F771FC60ED71ECC0C0A
:10187000DD1CC80ED11C5D01FFEFAF1ABF0A8C91B1
:1018800080538A30A8F1C4FF03C0D194C194D10819
:101890000C0D1D1DC1FF09C0E114F10431F081E000
:1018A000A81AB108D701AD92BC92CA01B9010E9431
:1018B000E40CC370C33009F490584B015C0120E084
:1018C00030E0A9010E94DF0C882309F440C0C3EE78
:1018D000D0E017FF05C0119501951109CBECD0E0C0
:1018E0006E01B8E1CB1AD10880E2E82EF12C0FC0CE
:1018F000D501B1CFFE0125913591459154910E1935
:101900001F09C501B4010E94450D4B015C01D501C1
:10191000C4010E151F0574F72497F594E794CC16AF
:10192000DD06A9F78A2F880F8B2F881F8F3F49F07C
:1019300020E030E0A901C501B4010E94DF0C811153
:1019400006C082E290E09093340280933302C50196
:10195000B401CDB7DEB7ECE00C945A0E91110C94A3
:10196000B20D803219F089508550C8F70895FB01F7
:10197000DC014150504088F08D9181341CF08B3552
:101980000CF4805E659161341CF06B350CF4605E84
:10199000861B611171F3990B0895881BFCCFDC0144
:1019A000FC01672F71917723E1F7329704C07C9196
:1019B0006D9370836291AE17BF07C8F308950E94BC
:1019C000210D08F481E00895E89409C097FB3EF4E6
:1019D00090958095709561957F4F8F4F9F4F99237C
:1019E000A9F0F92F96E9BB279395F69587957795FA
:1019F0006795B795F111F8CFFAF4BB0F11F460FFBA
:101A00001BC06F5F7F4F8F4F9F4F16C0882311F011
:101A100096E911C0772321F09EE8872F762F05C025
:101A2000662371F096E8862F70E060E02AF09A95C0
:101A3000660F771F881FDAF7880F9695879597F9B5
:101A40000895990F0008550FAA0BE0E8FEEF16164F
:101A50001706E807F907C0F012161306E407F507A2
:101A600098F0621B730B840B950B39F40A2661F016
:101A7000232B242B252B21F408950A2609F4A140B9
:101A8000A6958FEF811D811D08950E94580D0C941D
:101A9000CC0D0E94BE0D38F00E94C50D20F095239C
:101AA00011F00C94B50D0C94BB0D11240C94000E88
:101AB0000E94DD0D70F3959FC1F3950F50E0551F07
:101AC000629FF001729FBB27F00DB11D639FAA2793
:101AD000F00DB11DAA1F649F6627B00DA11D661FE2
:101AE000829F2227B00DA11D621F739FB00DA11D03
:101AF000621F839FA00D611D221F749F3327A00DBD
:101B0000611D231F849F600D211D822F762F6A2F58
:101B100011249F5750409AF0F1F088234AF0EE0FBD
:101B2000FF1FBB1F661F771F881F91505040A9F7EA
:101B30009E3F510580F00C94B50D0C94000E5F3F54
:101B4000E4F3983ED4F3869577956795B795F79526
:101B5000E7959F5FC1F7FE2B880F911D969587959E
:101B600097F9089599278827089597F99F6780E83E
:101B700070E060E008959FEF80EC089500240A94DF
:101B80001616170618060906089500240A94121658
:101B90001306140605060895092E0394000C11F48B
:101BA000882352F0BB0F40F4BF2B11F460FF04C038
:101BB0006F5F7F4F8F4F9F4F089557FD9058440F91
:101BC000551F59F05F3F71F04795880F97FB991F9C
:101BD00061F09F3F79F08795089512161306140659
:101BE000551FF2CF4695F1DF08C0161617061806E6
:101BF000991FF1CF86957105610508940895E894C1
:101C0000BB2766277727CB0197F90895052E97FB09
:101C10001EF400940E941D0E57FD07D00E946F0E07
:101C200007FC03D04EF40C941D0E50954095309552
:101C300021953F4F4F4F5F4F089590958095709538
:101C400061957F4F8F4F9F4F08950E94910EA59FE2
:101C5000900DB49F900DA49F800D911D11240895A7
:101C6000B7FF0C94250E0E94250E821B930B08953E
:101C70002F923F924F925F926F927F928F929F929C
:101C8000AF92BF92CF92DF92EF92FF920F931F938A
:101C9000CF93DF93CDB7DEB7CA1BDB0B0FB6F8943B
:101CA000DEBF0FBECDBF09942A88398848885F847B
:101CB0006E847D848C849B84AA84B984C884DF80EC
:101CC000EE80FD800C811B81AA81B981CE0FD11DD0
:101CD0000FB6F894DEBF0FBECDBFED010895A1E2AF
:101CE0001A2EAA1BBB1BFD010DC0AA1FBB1FEE1F96
:101CF000FF1FA217B307E407F50720F0A21BB30BE1
:101D0000E40BF50B661F771F881F991F1A9469F75C
:101D100060957095809590959B01AC01BD01CF01B8
:101D20000895A29FB001B39FC001A39F700D811DB4
:101D30001124911DB29F700D811D1124911D0895D4
:101D4000991B79E004C0991F961708F0961B881F0D
:101D50007A95C9F780950895EE0FFF1F0590F491CD
:101D6000E02D09940E94B90E6894B1110C94000EF4
:101D700008950E94E50D88F09F5798F0B92F992794
:101D8000B751B0F0E1F0660F771F881F991F1AF066
:101D9000BA95C9F714C0B13091F00E94FF0DB1E0BF
:101DA00008950C94FF0D672F782F8827B85F39F0BE
:101DB000B93FCCF3869577956795B395D9F73EF4FF
:101DC00090958095709561957F4F8F4F9F4F0895A7
:101DD0000F931F93CF93DF938230910510F482E02D
:101DE00090E0E0913702F091380230E020E0B0E07E
:101DF000A0E0309799F42115310509F44AC0281B59
:101E0000390B24303105D8F58A819B816115710524
:101E100089F1FB0193838283FE0111C040815181CE
:101E20000281138148175907E0F04817590799F4C0
:101E3000109761F012960C93129713961C9332969A
:101E4000CF01DF91CF911F910F9108950093370239
:101E500010933802F4CF2115310551F04217530782
:101E600038F0A901DB019A01BD01DF01F801C1CF02
:101E7000EF01F9CF9093380280933702CDCFFE0166
:101E8000E20FF31F81939193225031093983288304
:101E9000D7CF2091350230913602232B41F4209187
:101EA00013013091140130933602209335022091B2
:101EB0001101309112012115310541F42DB73EB7C2
:101EC0004091150150911601241B350BE09135020C
:101ED000F0913602E217F307A0F42E1B3F0B2817F0
:101EE000390778F0AC014E5F5F4F2417350748F093
:101EF0004E0F5F1F509336024093350281939193AA
:101F00009FCFF0E0E0E09CCFCF93DF930097E9F024
:101F1000FC01329713821282A0913702B0913802ED
:101F2000ED0130E020E01097A1F420813181820F93
:101F3000931F20913502309136022817390709F096
:101F400061C0F0933602E0933502DF91CF9108959E
:101F5000EA01CE17DF07E8F54A815B819E01411552
:101F60005105B1F7E901FB83EA8349915991C40F07
:101F7000D51FEC17FD0761F4808191810296840FD3
:101F8000951FE90199838883828193819B838A834A
:101F9000F0E0E0E012968D919C9113970097B9F5CF
:101FA0002D913C911197CD010296820F931F2091A4
:101FB0003502309136022817390739F6309751F536
:101FC0001092380210923702B0933602A093350275
:101FD000BCCFD383C28340815181840F951FC81722
:101FE000D90761F44E5F5F4F88819981480F591F6F
:101FF000518340838A819B8193838283211531059C
:1020000009F0B0CFF0933802E09337029ECFFD0184
:10201000DC01C0CF13821282D7CFFB01DC0101901B
:102020000D920020E1F7089510E0CBEED0E004C05F
:10203000FE010E94AC0E2196CC3ED107C9F7F89460
:02204000FFCFD0
:10204200FFFFFFFF00E1000000000000000080BF72
:102052007A00003902800000C18081000000000087
:10206200000024049F0345043A048B0449046704D6
:062072002C000D0A000025
:00000001FF
